:020000040800F2
:100000002812002089860008198300081B83000835
:100010001F830008238300082783000800000000D6
:100020000000000000000000000000002B8300081A
:100030002D830008000000002F8300083183000892
:10004000A3860008A3860008A3860008A3860008EC
:10005000A3860008A3860008A3860008374E000880
:10006000A3860008A3860008A3860008A3860008CC
:10007000F1270008A3860008A3860008A3860008CD
:10008000A3860008A3860008A3860008C7100008FE
:10009000A3100008A3860008A3860008A386000812
:1000A000A3860008A3860008A3860008A38600088C
:1000B000B52D0008DB2D0008EF2D0008A3860008F1
:1000C000A3860008A3860008A3860008A38600086C
:1000D000A3860008A3860008252C0008A386000834
:1000E000A3860008A3860008A3860008A38600084C
:1000F000A3860008A3860008A3860008A38600083C
:10010000A3860008A3860008A3860008A38600082B
:10011000A3860008A3860008A3860008A38600081B
:10012000A3860008A3860008A3860008A38600080B
:10013000A3860008A3860008A3860008B51200085D
:1001400093120008A3860008A3860008A38600086F
:10015000310D0008A3860008A3860008D1380008E6
:10016000A3860008A3860008A3860008A3860008CB
:10017000A3860008A3860008A3860008A3860008BB
:10018000A3860008A3860008A3860008A3860008AB
:10019000A3860008A3860008A3860008A38600089B
:1001A0000000000000000000A386000800F002F834
:1001B00000F061F80AA090E8000C82448344AAF1A0
:1001C0000107DA4501D100F056F8AFF2090EBAE89E
:1001D0000F0013F0010F18BFFB1A43F0010318477B
:1001E00080A00000A0A000000A444FF0000C10F80E
:1001F000013B13F0070408BF10F8014B1D1108BFA5
:1002000010F8015B641E05D010F8016B641E01F844
:10021000016BF9D113F0080F1EBF10F8014BAD1C94
:100220000C1B09D16D1E58BF01F801CBFAD505E0B2
:1002300014F8016B01F8016B6D1EF9D59142D6D30C
:10024000704700000023002400250026103A28BF34
:1002500078C1FBD8520728BF30C148BF0B60704738
:10026000642908F07382002070471FB509F0EBFE87
:100270001FBD10B510BD08F0E1FB1146FFF7F5FFFB
:1002800000F008F808F0FFFB03B4FFF7F2FF03BC2F
:1002900002F052FC00F02CF802F0D8FA01F0BEFB9C
:1002A00000F030FD18B900200849487002E0012034
:1002B0000649487008E003F0C9F805480268054897
:1002C000016805A008F002FAF5E70000AC01002083
:1002D000A8000020AC0000207069746368203D20F5
:1002E00025642020796177203D2025640D0A0000D7
:1002F00041F6E5609F494880B2EE010A084680ED6C
:10030000020A9FED9D0A80ED030A41F625409B49B4
:100310004880B2EE030A084680ED020A9FED980A73
:1003200080ED030A70479748007870479549087038
:1003300070479548007893490978884205D09148DC
:10034000007810B9002091490860704710B501F09D
:100350008FFB8F4890ED230A8E4880ED010A8C4870
:1003600090ED240A8B4880ED020A8948B0F84000DD
:1003700000B2884948827F48408808828448C08EFD
:10038000B0F5807F03D101208349087007E08048E1
:10039000C08EB0F5007F02D100207F4908707E48F2
:1003A0000078012804D17B4881690120884703E057
:1003B000784881690020884710BD10B5744890EDD9
:1003C000070A6C4880ED050A714890ED050A6948F6
:1003D00080ED040A6E4890ED250A664880ED060A15
:1003E0006B48B0F8400000B2624988800846416A14
:1003F000884710BD10B5664890ED030A5F4880ED50
:10040000040A634890ED260A5C4880ED060A6048BD
:10041000008F00B2594988800846416A884710BD5C
:1004200010B5584800785849087056480078052893
:1004300037D2DFE800F0031D252D35005348006852
:10044000401C5249086000F0B3F8022803D1032091
:100450004C4908700BE04D48006840F2DC5188427E
:1004600005D902204749087000204849086019E072
:1004700000F09EF8022802D103204249087011E0E2
:1004800000F096F8022802D103203E49087009E0E6
:1004900000F08EF8022802D000203A49087001E0EE
:1004A00000E000BF00BF10BD08B53C48007801283F
:1004B0005FD1FFF7B5FFFFF73CFFFFF77EFFFFF7C8
:1004C00099FFFFF743FF3648C07A18B1FFF72BFFBB
:1004D000032819D100231A461946324800F0FEFDC0
:1004E000002003460246014600902E4800F024FEFC
:1004F00000231A461946184600F0E7FE64202A49F0
:100500000860091F086034E0284890ED990ABDEEA4
:10051000C00A10EE100A03B21848B0F91C201548A2
:10052000B0F91C101F4800F0D9FD204890ED540A86
:10053000BDEEC00A10EE100A00B200901B4890ED0C
:100540003D0ABDEEC00A10EE100A03B2174890ED46
:10055000260ABDEEC00A10EE100A02B2134890ED52
:100560000F0ABDEEC00A10EE100A01B20D4800F0ED
:10057000E3FD08BD1C0000200000284244000020CC
:100580000000404272000020730000206C00002038
:100590007C0A0020000000207C0000207400002065
:1005A000AC010020006400403818004054020020D4
:1005B000FC480078704710B50446B4F92E001E229E
:1005C000514200F0BFFE01B2E185B4F930001E22B5
:1005D000514200F0B7FE01B2218694ED250AB4F92C
:1005E0002E0000EE900AF8EEE00A9FEDEF1A00EE02
:1005F000C10A84ED250A94ED260AB4F9300000EE14
:10060000900AF8EEE00A9FEDE91A00EEC10A84EDC7
:10061000260AE08E092874D007DC73D2DFE800F0E8
:1006200072192F724575BE725B00B0F5005F6AD01B
:1006300008DC0A2868D0B0F5006F7CD0B0F5805F88
:1006400060D1F5E0B0F5804F76D0B0F5004FF7D12E
:10065000FAE09FEDD70A84ED230A94ED240ADFED3A
:10066000D50AB4EEE00AF1EE10FA07D894ED240AA8
:10067000DFEDD10A30EE200A84ED240A27E19FED58
:10068000CC0A84ED230A94ED240ADFEDCC0AB4EE03
:10069000E00AF1EE10FA07DB94ED240ADFEDC60A5A
:1006A00030EE600A84ED240A11E19FEDC10A84ED69
:1006B000240A94ED230ADFEDC20AB4EEE00AF1EE5B
:1006C00010FA07DB94ED230ADFEDBB0A30EE600A77
:1006D00084ED230AFBE09FEDB60A84ED240A94ED35
:1006E000230ADFEDB80AB4EEE00AF1EE10FA07D8FB
:1006F00094ED230ADFEDB00A30EE200A84ED230AE0
:10070000E5E028E0A4E097E06BE094ED240ADFED5B
:10071000AE0AB4EEE00AF1EE10FA07D894ED240A1E
:10072000DFEDA50A30EE200A84ED240A94ED230AB9
:10073000DFEDA60A01E077E082E0B4EEE00AF1EE38
:1007400010FA07DB94ED230ADFED9B0A30EE600A16
:1007500084ED230ABBE094ED230ADFED9D0AB4EE9D
:10076000E00AF1EE10FA07D894ED230ADFED920AC1
:1007700030EE200A84ED230A94ED240ADFED920A7C
:10078000B4EEE00AF1EE10FA07D894ED240ADFED9A
:100790008A0A30EE200A84ED240A98E094ED240AB7
:1007A000DFED8C0AB4EEE00AF1EE10FA07DB94ED0F
:1007B000240ADFED810A30EE600A84ED240A94ED0C
:1007C000230ADFED820AB4EEE00AF1EE10FA07DB4D
:1007D00094ED230ADFED780A30EE600A84ED230AF7
:1007E00075E094ED230ADFED7A0AB4EEE00AF1EE4B
:1007F00010FA07D894ED230ADFED6F0A30EE200AD5
:1008000084ED230A94ED240ADFED720AB4EEE00AC7
:10081000F1EE10FA07DB94ED240ADFED670A30EE03
:10082000600A84ED240A52E001206B4908704EE012
:100830000220694908704AE003206749087046E0D1
:1008400004206549087042E00520634908703EE0D5
:1008500094ED230AB5EEC00AF1EE10FA08DD94ED2E
:10086000230ADFED550A30EE600A84ED230A0EE01C
:1008700094ED230AB5EEC00AF1EE10FA07D294ED1A
:10088000230ADFED4D0A30EE200A84ED230A94EDB1
:10089000240AB5EEC00AF1EE10FA08DD94ED240A40
:1008A000DFED450A30EE600A84ED240A0EE094ED97
:1008B000240AB5EEC00AF1EE10FA07D294ED240A2C
:1008C000DFED3D0A30EE200A84ED240A00BF00BFB0
:1008D000E08E802803D101204049087005E0E08EB9
:1008E000402802D100203D49087094ED260ADFED32
:1008F0003C0AB4EEE00AF1EE10FA04D29FED380A99
:1009000084ED260A0CE094ED260ADFED360AB4EEFB
:10091000E00AF1EE10FA03DD9FED320A84ED260ABB
:1009200031480078022806D0002000F0C3FF0020E4
:1009300000F05AFFC4E094F83400F0B12648007883
:10094000062818D2DFE800F01703070B0F13012069
:1009500000F0B6FF10E0022000F0B2FF0CE0032030
:1009600000F0AEFF08E0042000F0AAFF04E0012040
:100970001E49087000E000BFA0E01C480078012874
:100980007ED115480078052802D00020174908704C
:100990001748C07A01282DD0022839D0032853D116
:1009A00044E0000080000020295C8F3D6666E63F41
:1009B000000000000060EA45008009440060EAC5CC
:1009C00000E0ABC500E0AB4500A08C4500401CC575
:1009D00000401C4500A08CC588000020810000203C
:1009E00000005CC300803B447200002089000020AE
:1009F000F009002040F6980000F0F6FE41F2941055
:100A000000F058FF7A20D4490860091F086029E0E7
:100A100040F6FC0000F0E8FE41F2941000F04AFFBE
:100A20007D20CD490860091F08601BE040F6FC00EE
:100A300000F0DAFE41F2941000F03CFF8220C6493B
:100A40000860091F08600DE040F6980000F0CCFE39
:100A500041F2941000F02EFF7A20BF490860091F70
:100A6000086000BF00BFBD480068401CBB4908606B
:100A700008460068FA2821DB00200860B84900E039
:100A800010E008700120B7490870002000F0ACFEAB
:100A900041F2941000F00EFF7820AF490860091F62
:100AA00008600BE0002000F09FFE41F2941000F07F
:100AB00001FF7820A8490860091F086000F080FF46
:100AC00010BD10B50446FFF72EFCE8B3B4F92400BE
:100AD000A0F580601621484300EE100AB8EEC00A67
:100AE00084ED230AB4F92600A0F58060484300EEA7
:100AF000100AB8EEC00A84ED240A94ED250AB4F970
:100B00002800A0F5806000EE900AF8EEE00A9FED64
:100B1000961A00EEC10A84ED250A94ED260AB4F96E
:100B20002A00A0F5806000EE900AF8EEE00A9FED42
:100B30008F1A00EE810A84ED260A94ED260ADFED75
:100B40008C0AB4EEE00A00E014E0F1EE10FA04D2F0
:100B50009FED870A84ED260A0CE094ED260ADFED6E
:100B6000850AB4EEE00AF1EE10FA03DD9FED810A8A
:100B700084ED260A2C20005D01280AD1002000F017
:100B800033FE002000F096FE7B48C16800208847B5
:100B90001FE02C20005D03280BD1002000F024FE74
:100BA00041F27C5000F086FE7348C16801208847FE
:100BB0000FE02C20005D02280BD140F2DC5000F049
:100BC00013FE41F27C5000F075FE6B48C1680120B5
:100BD000884710BD2D21095C012902D1674A117097
:100BE0000CE02D21095C032902D1644A117005E053
:100BF0002D21095C022901D1604A1170704710B59E
:100C0000044601205E49087000205E49C8615E48C4
:100C100000785D49497840EA0120C0F30A00A084C9
:100C200059484078C0105849897840EA4110C0F3CB
:100C30000A01E1845448807880115349C97840EA18
:100C400081005149097940EA8120C0F30A012185D8
:100C50004D48007940104C49497940EAC110C0F331
:100C60000A01618548484079001181082C2001550E
:100C700045484079C0F301112D2001554248807943
:100C80004149C97940EA012001B2E1853E48007A34
:100C90003D49497A40EA012001B221863A48807AEA
:100CA0003949C97A40EA012001B261863648017BA0
:100CB00084F83410417B84F83510807B3249C97B3D
:100CC00040EA0121E1862046FFF784FFFFF770FC30
:100CD000012804D0022812D0032811D107E02046B1
:100CE000FFF7EFFE244881680120884708E020468E
:100CF000FFF761FC204881680120884700E000BFC1
:100D000000BF10BD2148B0F92600B0F5806F0BD1AF
:100D10001E48B0F92800B0F5806F05D11B48B0F926
:100D20002A00B0F5806F01D0002070470120FCE759
:100D300010B51749174805F01EFE01280AD11449BD
:100D4000144805F034FE1249124805F08BFE0F4896
:100D5000FFF755FF10BD0000381800408400002048
:100D60008900002088000020BC74933BCDCC4C3E11
:100D700000007AC300003444940100208000002069
:100D8000AC01002048090020FC0800207C0A00205B
:100D900000880020886402400146FE48B0F9000047
:100DA000FD4A1080FB480180B0F90000B2F9002034
:100DB000801AFA4A904206DAF9480088401C00B2CC
:100DC000F74A108010E0F348B0F90000F24AB2F997
:100DD0000020801A41F25042904205DDF048008820
:100DE000401E00B2EE4A1080ED48B0F90000ED4A16
:100DF0001080EB48B0F90000C0EB4030E54AB2F992
:100E00000020104470470146E748B0F90000E74A67
:100E10001080E5480180B0F90000B2F90020801A86
:100E2000DE4A904206DAE2480088401C00B2E04AFE
:100E3000108010E0DC48B0F90000DC4AB2F9002074
:100E4000801A41F25042904205DDD9480088401E88
:100E500000B2D74A1080D648B0F90000D54A1080B9
:100E6000D348B0F90000C0EB4030CF4AB2F90020BF
:100E7000104470470146D0480068D04A1060CE4800
:100E8000016000681268801ACD4A904205DACD48A8
:100E90000068401CCB4A10600DE0C7480068C74A94
:100EA0001268801A41F65832904204DDC548006845
:100EB000401EC44A1060C3480068C0EB4030BE4AC0
:100EC00012681044704710B586B0044601AA00218C
:100ED000BD4805F0A6F90198A0F20120072874D2B8
:100EE000DFE800F004111F2D3B74AC000020B7496F
:100EF00008609DF812109DF8110001EB002000B26F
:100F0000B3494884CAE00020B04948609DF81210F7
:100F10009DF8110001EB002001B2AD48A0F87E1051
:100F2000BCE00020A94988609DF812109DF81100CE
:100F300001EB002001B2A648A0F8DA10AEE00020D4
:100F4000A249C8609DF812109DF8110001EB002025
:100F500001B29F48A0F83611A0E000209B4908612B
:100F60009DF810009DF80F1040EA01209949086093
:100F70009948007810BB9948B0F902000968081A2E
:100F800041F28831884205DD92480068A0F50050A2
:100F9000206419E09148B0F902008E490968081AE6
:100FA0007E49C831884205DA8A48006800F5005059
:100FB000206409E087480168216405E085480088CD
:100FC00000B2FFF720FF206468E066E000207F4960
:100FD00048619DF810009DF80F1040EA01208049FB
:100FE00008607D48007810BB7E48B0F902000968AF
:100FF000081A41F28831884205DD79480068A0F579
:101000000050A06319E07748B0F9020074490968FC
:10101000081A6249C831884205DA7148006800F54B
:101020000050A06309E06E480068A06305E06C48CA
:10103000008800B2FFF7B0FEA0632FE000206349F4
:1010400088619DF812109DF8110041EA002001B25C
:10105000A4F86C109DF812109DF8110041EA0020D0
:1010600001B25B48A0F84A129DF810109DF80F20BD
:1010700041EA022108B2FFF7FDFE242190FBF1F0C6
:10108000594948615948006830B90846808A00B219
:10109000088301205549086000E000BF00BF06B08A
:1010A00010BD10B50221484805F03EFA50B10221AA
:1010B000454805F0D4FA4E49434805F012FA4D4828
:1010C000FFF701FF10BD10B501213F4805F02CFAD4
:1010D00018B101213C4805F0C2FA10BDF0B585B049
:1010E00007460C4615461E4640F2FF1000900020B1
:1010F0008DF808008DF8090008208DF80A00200AF4
:101100008DF80B00E1B28DF80C10290A8DF80D1046
:10111000E9B28DF80E10310A8DF80F10F1B28DF88A
:10112000101000218DF811108DF812106946384604
:1011300004F082FF05B0F0BD2DE9F04186B0804695
:101140000C4615461E460C9F4FF40070019000207F
:101150008DF80C008DF80D0008208DF80E00200A87
:101160008DF80F008DF81040290A8DF811108DF8B8
:101170001250310A8DF813108DF81460390A8DF869
:1011800015108DF8167001A9404604F055FF06B001
:10119000BDE8F0819000002092000020B0EBFFFF3E
:1011A0008C000020A6000020940000209600002063
:1011B0008E000020A40000209C0000209800002049
:1011C000A8E4FFFFA00000200064004048090020C0
:1011D00054020020A8000020720000201C00002003
:1011E000AC0000204400002014080020B0000020C3
:1011F000080000327C0A002000B585B06A46002154
:101200004C4805F00EF80098A0F2012030B10128FA
:1012100011D002281DD0032837D128E000204649EC
:1012200008629DF80E109DF80D0001EB002000B241
:10123000424948842AE000203F4948629DF80E1048
:101240009DF80D0001EB002001B23C48A0F87E1093
:101250001CE00020384988629DF80E109DF80D00B2
:1012600001EB002001B23548A0F8DA100EE00020B2
:101270003149C8629DF80E109DF80D0001EB002069
:1012800001B22E48A0F8361100E000BF00BF05B043
:1012900000BD10B50221274805F046F948B10221EA
:1012A000244805F0DCF92649224805F01AF9FFF731
:1012B000A3FF10BD10B501211E4805F035F918B186
:1012C00001211C4805F0CBF910BD2DE9F04385B094
:1012D00004460D4616461F464FF000084FF40070B6
:1012E000009000208DF808008DF8090008208DF886
:1012F0000A00200A8DF80B00E1B28DF80C10290AC3
:101300008DF80D10E9B28DF80E10310A8DF80F101E
:10131000F1B28DF81010390A8DF81110F9B28DF86C
:1013200012106946034804F087FE814605B0BDE807
:10133000F0830000006800404809002034050020C8
:101340000800003203468B4201DA08467047934298
:1013500001DD1046FAE71846F8E7F0B50446002626
:1013600020886188401A05B23A480088281A00B2DD
:1013700000EE100A3848B0F90000022101FB1050BD
:1013800034490988084400B200EE900A94ED021A2C
:10139000F8EEC01A61EE211A94ED032A01EE105AFC
:1013A000F8EEC12AB0EE611A02EE221AD4ED041A48
:1013B000B8EEE02A01EE821ABDEEC11A11EE100A53
:1013C00007B2F01906B2B4F9042051423046FFF7D3
:1013D000B9FF00B2A0822048B0F900001D49088082
:1013E0001D480580F0BDF0B5044620886188401A8C
:1013F00005B2701906B219480088281A00B200EE2A
:10140000100A1648058094ED021A00EE905AF8EE84
:10141000E00A21EE201AD4ED031A00EE905AB8EE3D
:10142000E02AF0EE410A42EE210A94ED041AF8EEA9
:10143000C01A41EE810AFDEEE00A10EE900A07B2F2
:10144000B4F9042051423846FFF77CFF00B2A08275
:10145000F0BD0000400100204201002044010020B6
:1014600010B52DED048B044600BF00BF00BF2088DF
:10147000401C00B22080B4F9000040F2DC518842E8
:1014800001DD08462080B4F90410B4F90220891A5D
:101490004FF4B47201FB02F0C11700EBD1414913C4
:1014A000494200EE101AB8EEC00AD4ED020A20EE4E
:1014B000208A94ED040A30EE080AB1EE400AD4ED19
:1014C000030A60EE208AB4F900205142BDEEE80A1A
:1014D00010EE100AFFF736FF00EE100AB8EEC09AC1
:1014E000B0EE490ABDEC048B10BD10B52DED048B98
:1014F00004469FEDFE0AB0EE408A9FEDFC0AF0EE36
:10150000408A9FEDFA0AB0EE409A41F29410208092
:10151000F7480078D8B994ED060AD4ED050A30EE04
:10152000200AF44880ED000A94ED020AD0ED000A8A
:1015300020EE600AB0EE408A94ED040A38EE400ACC
:10154000D4ED030A20EE200AF0EE408A2BE094ED61
:10155000050AB1EE400A84ED060AE74890ED000A5C
:10156000B5EEC00AF1EE10FA0CD090ED000ADFEDF6
:10157000E30A30EE600ADFEDE20A20EE200AB0EE68
:10158000408A04E09FEDD90ADB4880ED000A94ED23
:10159000040A30EE080AB1EE400ADFEDDA0A20EE66
:1015A000200AF0EE408AB4F900205142BDEEE80A6C
:1015B00010EE100AFFF7C6FE00EE100AB8EEC00AE1
:1015C000B0EE409AB0EE490ABDEC048B10BD10B5E8
:1015D0000446FEF7A8FE022815D09FEDC40ACA48AB
:1015E00080ED070A80ED250A9FEDC00AC74880ED0F
:1015F000000A2046FFF734FFBDEEC00A10EE100AC5
:1016000000B2A08308E02046FFF76FFFBDEEC00ADE
:1016100010EE100A00B2A08310BD10B52DED088B9E
:1016200004469FEDB20AF0EE408A9FEDB00AB0EE9C
:10163000408AB74890ED000AF7EE000A30EE200A23
:1016400080ED000A90ED000ADFEDB20AB4EEE00A88
:10165000F1EE10FA03DD9FEDAF0A80ED000AA44819
:101660000078D8BBB4F90400B4F90210401A00EEB7
:10167000100AB8EEC00AD4ED060A30EE200ADFEDFB
:10168000A60A20EE200ADFEDA50A80EE201A94EDCE
:10169000020A21EE000AF0EE408A94ED040A38EEC8
:1016A000C00AD4ED030A20EE200AB0EE408A9FED76
:1016B000990AB4EEC08AF1EE10FA03DD9FED950AA7
:1016C000B0EE408A9FED960AB4EEC08AF1EE10FAB1
:1016D00046D29FED930AB0EE408A41E0FFE7B4F9AD
:1016E000040000EE100AB8EEC00A8E48D0ED000AE1
:1016F00030EEC00A84ED060A7F4890ED010AB5EE8F
:10170000C00AF1EE10FA1DD090ED010A10EE101A89
:10171000084608F027FC41EC1B0B9FED830B53ECB4
:10172000102B07F05FFF41EC1A0B9FED810B53EC80
:10173000102B08F057F941EC190B07F021FF08EEC8
:10174000900A03E09FED690AF0EE408A94ED040AE6
:1017500038EEC00ADFED780A20EE200AB0EE408AAB
:10176000BDEEC80A10EE100A00B2A083BDEC088BD3
:1017700010BD00BF714AB2F90420704BB3F90230BA
:10178000D21A4FF4B47302FB03F1CA1701EBD24231
:10179000501310F1960F02DA00F5B47108B27047D9
:1017A00010B504466648A0F8484200F50A7000F0FB
:1017B000BBFD634991ED990ABDEEC00A10EE100A17
:1017C0004FF4FA525142FFF7BDFD00EE100AB8EE99
:1017D000C00A5B4880ED990A90ED990ABDEEC00AF7
:1017E00010EE100A00B210BD70B5044625463DB398
:1017F0005348B0F94A0264280EDA52480068401C87
:101800005049086008460068282805DD01204E4937
:10181000087000204B4908604B48007801280FD120
:101820004A480068401C49490860494D084600681C
:101830000A2805DD0020444908704449086025460F
:101840002846FFF7ADFF70BD10B50446604200B2F8
:10185000404908840846A0F87C4000F065FD3D48FA
:101860005C3000F061FD3B4991ED0F0ABDEEC00A0E
:1018700010EE100A41F658325142FFF763FD00EEB8
:10188000100AB8EEC00A334880ED0F0A014691ED08
:10189000260ABDEEC00A10EE100A41F65832514237
:1018A000FFF750FD00EE100AB8EEC00A294880ED9F
:1018B000260A10BD10B504462046FFF7C5FF10BD2F
:1018C00010B50446062C79D2DFE804F078034A58B4
:1018D00066744FF44870FFF787FF41F66410FFF716
:1018E000E9FF96201C490860091F37E0000000004E
:1018F0008100002050010020E808002052B86E400E
:101900003333034100005C427C0A00204C0100207C
:101910005C01002000409C450000B44300000046EC
:1019200000409CC554010020CDCCCCCCCCCC044094
:10193000000000000000204000000C424400002095
:10194000540200206C01002074010020700100206E
:1019500024FAFFFF340500203818004008602DE00D
:1019600040F6FC00FFF740FF41F29410FFF7A2FFA2
:10197000782028490860091F08601FE040F2DC5009
:10198000FFF732FF41F27C50FFF794FF822021499C
:101990000860091F086011E04FF42F60FFF724FF73
:1019A00041F66410FFF786FF96201A490860091F68
:1019B000086003E00020FFF717FF00BF00BF10BD65
:1019C00010B51548C07A012804D002280BD003288E
:1019D0001CD111E01048B0F82700412802DD052095
:1019E000FFF76EFF13E00C48B0F82700A02802DDD7
:1019F0000520FFF765FF0AE00748B0F82700B0F5BB
:101A0000A87F02DD0520FFF75BFF00E000BF00BFFD
:101A100010BD000038180040F009002010B5002467
:101A200000BF14E0C4EBC40101EB0411FE4A02EB59
:101A300081009FEDFE1ADFEDFE0AB2EE080A4FF4B8
:101A4000FA7341F65832042100F00BFD641C042C9B
:101A5000E8DB9FEDF61AF6EE000AB7EE000A4FF447
:101A6000FA7341F658320421F24800F0FAFC10BD36
:101A700010B5002400BF14E0C4EBC40101EB041155
:101A8000ED4A02EB8100B6EE001AF7EE000AB2EE64
:101A9000080A4FF4FA7341F65832042100F0E1FCD1
:101AA000641C042CE8DB10BD10B504464120E3495A
:101AB0000880E348007801287ED10020E0490870C2
:101AC00094ED020AB5EEC00AF1EE10FA76DDB2EE40
:101AD000000ADA4880ED030AB0F9000000EE100AAF
:101AE000B8EEC00AD548D0ED060A30EE600ABDEE69
:101AF000C00A10EE100A00B200EE100AB8EEC00ADA
:101B0000CE48D0ED030A20EE200ABDEEC00A10EE4A
:101B1000100A00B2C94988830846B0F91C000028A1
:101B200004DD41F66410C7490860CFE094ED010A76
:101B3000B5EEC00AF1EE10FA19D194ED030AB5EE34
:101B4000C00AF1EE10FA12D1BC48B0F91C00BD4930
:101B500009680844BB49086041F6641240F2DC5150
:101B6000B8480068FFF7EEFBB649086011E0B348DB
:101B7000B0F91C00B34909680844B249086041F64D
:101B8000380240F2DC51AF480068FFF7DBFBAD499B
:101B90000860D4ED020AAB4890ED000AB8EEC00A26
:101BA000F4EEC00AF1EE10FA05DD90ED000AB8EE91
:101BB000C00A84ED020A89E0B0E1FFE794ED020A71
:101BC000B5EEC00AF1EE10FA2CD2B2EE000A9B4834
:101BD00080ED030AB0F9000000EE100AB8EEC00A6A
:101BE0009648D0ED060A30EE600ABDEEC00A10EE4F
:101BF000100A00B200EE100AB8EEC00A8F48D0ED0D
:101C0000030A20EE200ABDEEC00A10EE100A00B250
:101C10008A4988830846B0F91C00002803DD8A48F9
:101C20008849086052E094ED010AB5EEC00AF1EE71
:101C300010FA29D194ED030AB5EEC00AF1EE10FABC
:101C400022D17E48B0F91C007E490968081A7D49F6
:101C500008607E4A7E497B480068FFF773FB79493C
:101C60000860D4ED020A084690ED000AB8EEC00AFA
:101C7000F4EEC00AF1EE10FA28DD90ED000AB8EE9D
:101C8000C00A84ED020A21E06C48B0F91C006D49DD
:101C90000968081A6B4908606C4A6B496948006812
:101CA000FFF750FB67490860D4ED020A084690ED43
:101CB000000AB8EEC00AF4EEC00AF1EE10FA05D23E
:101CC00090ED000AB8EEC00A84ED020A94ED010A14
:101CD000B5EEC00AF1EE10FA53DDB2EE000A574835
:101CE00080ED030AB0F9000000EE100AB8EEC00A59
:101CF0005248D0ED060A30EE600ABDEEC00A10EE82
:101D0000100A00B200EE100AB8EEC00A4B48D0ED3F
:101D1000030A20EE200ABDEEC00A10EE100A00B23F
:101D2000464988830846B0F91C00002804DD41F2CA
:101D30007C504849086097E04048B0F91C0045498C
:101D4000096808444349086041F27C5240F2DC5182
:101D500040480068FFF7F6FA3E490860D4ED010AF2
:101D6000084690ED000AB8EEC00AF4EEC00AF1EEA3
:101D700010FA79DD90ED000AB8EEC00A84ED010A90
:101D800072E094ED010AB5EEC00AF1EE10FA6BD2E2
:101D9000B2EE000A294880ED030AB0F9000000EE17
:101DA000100AB8EEC00A2548D0ED060A30EE600AE7
:101DB000BDEEC00A10EE100A00B200EE100AB8EE36
:101DC000C00A1E48D0ED030A20EE200ABDEEC00A6C
:101DD00010EE100A00B2194988830846B0F91C00B9
:101DE000002803DD1C481B4908603DE01348B0F99A
:101DF0001C0018490968081A16490860134A164950
:101E000014480068FFF79EFA12490860D4ED010AF1
:101E1000084690ED000AB8EEC00AF4EEC00AF1EEF2
:101E200010FA21D21AE00000340500200000000062
:101E30006666E63F7C04002054020020300A002041
:101E4000BB01002078010020C8E7FFFF24FAFFFF54
:101E50009CE6FFFF7C01002084EAFFFF90ED000A72
:101E6000B8EEC00A84ED010A94ED030AB5EEC00A8B
:101E7000F1EE10FA53DD9FEDFE0AFE4880ED030AF5
:101E8000B0F9000000EE100AB8EEC00AF948D0ED33
:101E9000060A30EE600ABDEEC00A10EE100A00B26B
:101EA00000EE100AB8EEC00AF248D0ED030A20EEA8
:101EB000200ABDEEC00A10EE100A00B2ED49888378
:101EC0000846B0F91C00002804DD42F21070EA490F
:101ED00008607BE0E748B0F91C00E749096808445E
:101EE000E549086042F2107242F21C51E248006873
:101EF000FFF728FAE0490860D4ED030A084690EDA0
:101F0000000AB8EEC00AF4EEC00AF1EE10FA5DDD88
:101F100090ED000AB8EEC00A84ED030A56E094ED95
:101F2000030AB5EEC00AF1EE10FA4FD29FEDD00AC7
:101F3000D04880ED030AB0F9000000EE100AB8EEB8
:101F4000C00ACC48D0ED060A30EE600ABDEEC00AE9
:101F500010EE100A00B200EE100AB8EEC00AC54832
:101F6000D0ED030A20EE200ABDEEC00A10EE100AE2
:101F700000B2C04988830846B0F91C00002803DD80
:101F8000BE48BD49086021E0BA48B0F91C00BA4912
:101F90000968081AB8490860B94AB849B6480068DB
:101FA000FFF7D0F9B4490860D4ED030A084690ED74
:101FB000000AB8EEC00AF4EEC00AF1EE10FA05D23B
:101FC00090ED000AB8EEC00A84ED030A10BD70B5AA
:101FD00005460024FEF7A7F9022809D01FED6D0A77
:101FE000A84880ED000A90ED000A80ED030A75E034
:101FF000FDB9A449B1F91010A24AB2F91220891A08
:102000004FF4B47201FB02F0C11700EBD141491348
:1020100000EE101AB8EEC00A9A4981ED000A08468F
:1020200090ED000ADFED980A20EE200A80ED030A09
:1020300054E0012D52D19548007818BB9149B1F96F
:102040001010904AB2F91220891A01F57A714FF4F2
:10205000B47201FB02F0C11700EBD141491300EE4D
:10206000101AB8EEC00A874981ED000A084690EDC3
:10207000000AB5EEC00AF1EE10FA26D1012083491C
:10208000087022E07F49B1F910107E4AB2F912209F
:10209000891AA1F57A714FF4B47201FB02F0C117ED
:1020A00000EBD141491300EE101AB8EEC00A754991
:1020B00081ED000A084690ED000AB5EEC00AF1EE87
:1020C00010FA02D10020714908706E4890ED000AA4
:1020D000DFED6F0A20EE200A80ED030A6948FFF762
:1020E000E3FC684890ED020AD0ED030A30EE200AC6
:1020F000D0ED010A30EE200ABDEEC00A10EE100A43
:1021000000B2644908845F4890ED020AD0ED030AEA
:1021100030EE600AD0ED010A30EE600AB1EE400AFE
:10212000BDEEC00A10EE100A01B25A48A0F87C10A9
:10213000544890ED020AD0ED030A30EE200AD0EDAB
:10214000010A30EE600ABDEEC00A10EE100A01B2BC
:102150005048A0F8D8104B4890ED020AD0ED030A81
:1021600030EE600AD0ED010A30EE200AB1EE400AEE
:10217000BDEEC00A10EE100A01B24648A0F83411B4
:10218000002409E0C4EBC40101EB0411414A02EB55
:10219000810000F0C9F8641C042CF3DB00241FE06C
:1021A000C4EBC40101EB04113A4A02EB810191ED49
:1021B0000F0ABDEEC00A10EE100A41F66412514239
:1021C000FFF7C0F800EE100AB8EEC00AC4EBC40076
:1021D00000EB04102F4901EB800080ED0F0A641C16
:1021E000042CDDDB70BD10B52DED028B04461FED18
:1021F000F10AF0EE408A1FEDF30AB0EE408AB0EE2D
:10220000000A254880ED040AB7EE000A80ED030AB3
:10221000C46140692049B1F91810401A1E49C969C2
:10222000081A00EE100AB8EEC00A1B4880ED090A31
:1022300090ED040AD0ED090A20EE200AF0EE408A63
:10224000D0ED030A1348B0F94A0200EE100AB8EEC6
:10225000C00A38EEC00A20EE800AB0EE408A41F291
:1022600070725142BDEEC80A10EE100A16E000006E
:102270009A99993F300A002080010020F0D8FFFF92
:10228000E4DAFFFF00000020000048438401002042
:102290000000F0425402002014080020FFF752F81A
:1022A00000EE100AB8EEC00AB0EE408AB0EE480A5E
:1022B000BDEC028B10BD0000D0ED000AF4EEC00AA8
:1022C000F1EE10FA01DD80ED000AD0ED000AB1EE6A
:1022D000401AF4EEC10AF1EE10FA03D2F1EE400A10
:1022E000C0ED000A70470365C264816480ED000A96
:1022F000C0ED010A80ED021A704780ED000AC0EDC2
:10230000010A80ED021ADFED6D1AC0ED0C1ADFED47
:102310006B1AC0ED0D1ADFED691AC0ED0E1ADFED74
:10232000671AC0ED0F1A704700B50146B1F92000D9
:10233000B1F92220801A00EE100AB8EEC00A81ED31
:102340000B0A886C03283ED191ED000AD1ED0B0AEF
:1023500020EE200A81ED0C0A91ED0D0AD1ED010A63
:1023600091ED0B1A00EE810A81ED0D0A91ED0B0A39
:10237000D1ED0A0A30EE600AD1ED020A20EE200A01
:1023800081ED0E0AD1ED140AF8EE600AB0EE600A93
:1023900001F13400FFF790FF91ED0C0AD1ED0D0A29
:1023A00030EE200AD1ED0E0A30EE200A81ED0F0A40
:1023B000D1ED130AF8EE600AB0EE600A01F13C00BC
:1023C000FFF77AFF42E0886C04283FD191ED0B0AB9
:1023D000D1ED0A0A30EE600AD1ED000A20EE200AA3
:1023E00081ED0C0A91ED010AD1ED0B0A20EE200AD5
:1023F00081ED0D0A91ED0B0AD1ED0A0AB0EE001A3B
:1024000001EE600AD1ED090A30EE200AD1ED020A90
:1024100020EE200A81ED0E0A91ED0C0AD1ED0D0A95
:1024200030EE200AD1ED0E0A30EE200AD1ED0F0A6F
:1024300030EE200A81ED0F0AD1ED130AF8EE600AA2
:10244000B0EE600A01F13C00FFF736FF91ED0A0A99
:1024500081ED090A91ED0B0A81ED0A0A91ED0F0A4F
:1024600000BD2DE9F0412DED048B04460D461646C6
:102470001F46B0EE408AF0EE608AB0EE419A1048F6
:1024800060651048A065B0EE491AF0EE680AB0EE3B
:10249000480A3B46324629462046D4F854C0E04715
:1024A000B0EE491AF0EE680AB0EE480A2046A16D77
:1024B0008847BDEC048BBDE8F081000000000000FF
:1024C000E7220008FB22000800F07F0200EE102A3D
:1024D000B8EEC00AF0EE400A00EE101AB8EE400A5C
:1024E000B0EE401A00F0800252B1DFEDCA1AB0EE31
:1024F000410A00EEA10ADFEDC81A30EE610A70470A
:10250000B0EE410ADFEDC31A00EEA10AF7E700B50D
:10251000C2480068012803D10020C049086000E0DB
:1025200000BDBE480079FF2843D1BC48C07AFE28D0
:102530003FD1BA4A51799079FFF7C6FFDFEDB80A6B
:1025400080EE201AB74880ED001AB44A517A907A8A
:10255000FFF7BAFFBDEEC00A10EE100A00B2B14993
:1025600008810846008901280FD1AC4AD179107A38
:10257000FFF7AAFF9FEDAA1AC0EE010AB0EE0C0AFF
:1025800030EEC00AA74880ED010AA648008902285B
:102590000FD1A24AD179107AFFF796FFDFEDA00A9A
:1025A00080EE201AB1EE020A31EE400A9D4880ED1D
:1025B000010A00BFB4E770B504460D46FF209A49F2
:1025C0000870084644708D70FE20C870002097493E
:1025D000087012E000BF4021954803F03BFB012842
:1025E000F9D19148914A1278815C914803F082FABE
:1025F0008E480078401C8D4908708C48007804286B
:10260000E8DB70BD1CB50121082002F0BCFF4FF4CF
:102610004070009002208DF8040000208DF8060024
:1026200003208DF8050000208DF8070069468148D9
:1026300002F008FD072209217E4802F08EFD0722E4
:1026400008217C4802F089FD1CBD1FB501218804CA
:1026500002F0E0FF784803F033F94FF4E1300090E6
:102660000020ADF80400ADF806004FF48060ADF82E
:1026700008000C20ADF80A000020ADF80C006946F7
:102680006D4803F084F901216B4803F008FA012238
:102690004021694803F0B0FA1FBD08B50C208DF841
:1026A000000000208DF8010003208DF802000120B9
:1026B0008DF80300684602F0D4FB08BD00B58FB06A
:1026C0000121480502F05FFF00215C4804F0F6F8A4
:1026D00000BF5A482838806A00F001000028F8D16D
:1026E000564804F00FF84FF0006000905248001D6B
:1026F000019053480290002003900F200490002086
:1027000005904FF4806006900020079008904FF4E9
:10271000807009904FF440300A9000200B900C908C
:102720000D900E906946454804F08EF80122102164
:10273000424804F050F90121404804F0BFF80FB0BE
:1027400000BD10B5FFF75EFFFFF77FFFFFF7A5FFA6
:10275000FFF7B4FF10BD002000BF10E03849095C4E
:10276000FF290BD1364AC11D515CFE2906D1411CFF
:102770001144344A0B68136089889180401C1928E1
:10278000ECDB3049B1F9001000EE101AB8EEC00AC7
:10279000B1EE400ADFED220A80EE201A214981EDD8
:1027A000001A2849B1F9021000EE101AB8EEC00A5A
:1027B000B1EE400ADFED1A0A80EE201A194981EDC8
:1027C000011A20498988174A11811146098901296E
:1027D00004D1114691ED010A81ED010A11490989DF
:1027E000022904D10F4991ED010A81ED010A7047D8
:1027F00010B51549114804F0BEF8012809D1124955
:102800000E4804F0D4F810490C4804F02BF9FFF7F7
:10281000A2FF10BD000080430000004718090020FF
:102820000000C842E80800208C0100209001002030
:1028300000440040000C0240004800402860024074
:10284000CC080020850100200088001010B500F0A1
:10285000B8FB00F06BF800F08DF800F0A7F8A820A6
:1028600000F05AFCFFF76DFF00F0D8F902F06CFAA7
:1028700000F096FA00F04BF900F042FC00F065FD24
:1028800002F0C5F902F0CFFA4FF4FA7000F0A6FC9E
:1028900000F032FE10BD10B504462CB14FF480415B
:1028A0001D4802F04DFC04E04FF480411A4802F04C
:1028B00045FC10BD10B5044624B18021174802F034
:1028C0003FFC03E08021154802F038FC10BD10B534
:1028D00004462CB14FF40051114802F02FFC04E0E3
:1028E0004FF400510E4802F02BFC10BD18B1182116
:1028F0000C4A516302E00F210A4A5163704728B124
:102900009321094A1160121F116004E06421064AF4
:102910001160121F11607047001402400010024045
:102920000018024000000140381800401CB5012189
:10293000302002F028FE8020009001208DF8040055
:1029400000208DF8060003208DF8050001208DF889
:1029500007006946054802F075FB4FF4804000907F
:102960006946034802F06EFB1CBD000000100240E7
:10297000001402401CB50121402002F004FE4FF477
:102980000050009001208DF8040000208DF8060012
:1029900003208DF8050001208DF8070069460248E4
:1029A00002F050FB1CBD0000001802401CB50121C4
:1029B000022002F0E8FD1020009001208DF80400B4
:1029C00000208DF8060003208DF8050001208DF809
:1029D00007006946014802F035FB1CBD00040240B7
:1029E0001CB50121022002F0CEFD802000900220C3
:1029F0008DF8040000208DF8060003208DF80500F6
:102A000000208DF807006946464802F01BFB0722AC
:102A10001146444802F0A1FB1CBD1FB50121102046
:102A200002F009FE404802F04BFF404800900020B1
:102A3000ADF80400ADF806004FF48060ADF8080072
:102A40000420ADF80A000020ADF80C0069463648B5
:102A500002F09DFF0121344803F021F801224021BA
:102A6000314803F0C9F81FBD08B544208DF80000B7
:102A700000208DF8010003208DF8020001208DF860
:102A80000300684602F0EDF908BD00B58FB00121E2
:102A9000880502F078FD0021254803F00FFF00BFF4
:102AA0002348006800F001000028F9D1204803F015
:102AB00029FE4FF0006000901B48001D01901D484A
:102AC00002900020039012200490002005904FF403
:102AD000806006900020079008904FF48070099065
:102AE0004FF440300A9000200B900C900D900E9007
:102AF00069460F4803F0A8FE012210210C4803F09C
:102B00006AFF01210A4803F0D9FE0FB000BD10B5DD
:102B1000FFF766FFFFF781FFFFF7A6FFFFF7B5FF9F
:102B200010BD00000004024000100140A08601001A
:102B300088640240FC08002000BF704700BF534A71
:102B4000128802F04002002AF9D0C2B24F4B1B1D7E
:102B50001A8070471CB50121082002F014FD602086
:102B6000009002208DF8040000208DF8060003205C
:102B70008DF8050000208DF807006946444802F0F2
:102B800061FA07220521424802F0E7FA07220621EE
:102B90003F4802F0E2FA1CBD1FB5FFF7DBFF012141
:102BA000480402F037FD4FF4E13000900020ADF80A
:102BB0000400ADF80600ADF808000C20ADF80A00DE
:102BC0000020ADF80C006946304802F0E0FE01221A
:102BD00040F225512D4803F018F801212B4802F04E
:102BE0005EFF00BF8021294803F034F80128F9D1A5
:102BF0001FBD08B54FF4A06002F02EF903208DF838
:102C0000010001208DF8020026208DF8000001202F
:102C10008DF80300684602F024F908BD10B5FFF7EF
:102C2000BBFF10BD10B540F22551184803F028F83D
:102C300050B3164802F062FFC4B21648406A48B961
:102C4000FF2C20D11348416A001D44540120114932
:102C5000486218E0FE2C0DD10E48416A001D445414
:102C6000001F406A401C0B49886200204862012016
:102C7000086008E00748416A001D4454001F406A8C
:102C8000401C0449486200BF10BD000000440040E1
:102C9000000C0240180900200EB50121084602F080
:102CA000B9FC4FF0FF3001905920ADF80000002032
:102CB000ADF80800ADF802000121880704F00EF815
:102CC00069464FF0804003F09EFF0121880704F021
:102CD00023F80EBD0EB50121022002F09BFC4A48EC
:102CE00003F0E4FE41F2873001905920ADF8000076
:102CF0000020ADF80800ADF802006946424803F034
:102D000082FF01221146404804F01EFC01213E488A
:102D100004F002F80EBD0EB50121042002F07AFC89
:102D20003A4803F0C3FE40F2E73001905920ADF875
:102D300000000020ADF80800ADF8020069463348F5
:102D400003F061FF01221146304804F0FDFB012130
:102D50002E4803F0E1FF0EBD08B54FF4A06002F06D
:102D60007BF81D208DF8000001208DF80100022065
:102D70008DF8020001208DF80300684602F071F81A
:102D80001E208DF8000001208DF8010000208DF834
:102D9000020001208DF80300684602F062F808BDC9
:102DA00010B5FFF779FFFFF795FFFFF7B4FFFFF7C7
:102DB000D3FF10BD10B50121880704F0DCFB38B14A
:102DC0000121880704F0E8FB0121880704F0D0FB0B
:102DD00010BD4FF08040406A704710B501210A488D
:102DE00004F0C9FB0121084804F0D6FB10BD10B562
:102DF0000121064804F0BFFB08B1FDF755FB012196
:102E0000024804F0C9FB10BD000400400008004067
:102E100000B58BB00121084602F00DFC01210846E7
:102E200002F0B1FB0121102002F0ADFB01220821CC
:102E3000674802F092F901220921654802F08DF9F4
:102E400001220E21634802F088F901220D21614818
:102E500002F083F94FF44070099002208DF82800A9
:102E600003208DF8290000208DF82A0001208DF81C
:102E70002B0009A9564802F0E5F84FF4C04009902C
:102E800009A9544802F0DEF844F24F60ADF818008A
:102E90000020ADF81A00C72007900020ADF82000F0
:102EA0008DF8220006A94C4803F0ADFE6020ADF875
:102EB00004000120ADF806000420ADF80800002051
:102EC0000390ADF810000820ADF812004001ADF8F5
:102ED00014000020ADF8160001A93F4803F028FFB8
:102EE00001A93D4803F05DFF01A93B4803F0A6FF9F
:102EF00001A9394804F008F80121374803F00CFF14
:102F00000121354804F0F9FA0BB000BD00B58BB0D3
:102F10000121402002F07EFB0121802002F033FBE2
:102F2000092206212D4802F018F9092211462B48E2
:102F300002F013F94FF41070099002208DF8280068
:102F400003208DF8290000208DF82A0001208DF83B
:102F50002B0009A9214802F075F840F28330ADF842
:102F600018000020ADF81A0040F63E00079000203F
:102F7000ADF8200006A91A4803F045FE6020ADF820
:102F800004000120ADF806000020ADF8100001A9F2
:102F9000134803F0CDFE01A9114803F002FF0821F8
:102FA0000F4804F052F808210D4804F057F80121A9
:102FB0000B4803F093FE0121094803F0ADFE0BB06E
:102FC00000BD10B5FFF724FFFFF7A0FF10BD000004
:102FD000000002400010024000000140001C0240BE
:102FE000001800401CB50121082002F0CCFA032093
:102FF000009002208DF8040003208DF8050069463A
:10300000434802F01FF809220021414802F0A5F8C8
:10301000092201213E4802F0A0F81CBD08B54FF47A
:10302000A06001F019FF14208DF8000001208DF838
:1030300001008DF802008DF80300684601F011FFD1
:1030400013208DF8000000208DF8010001208DF87C
:1030500002008DF80300684601F003FF08BD00B5CB
:1030600087B00121480602F0D5FA2A4802F052FE44
:1030700004A802F073FF00208DF816008DF81700E9
:103080008DF818008DF819008DF81A0001208DF8C0
:103090001B0000208DF812008DF8130005208DF81C
:1030A000140007208DF815000320ADF8100004A9C6
:1030B000184802F048FE00208DF80A008DF80B0039
:1030C00001208DF80C000020ADF80000ADF80200E2
:1030D000ADF80400ADF80600ADF8080001208DF849
:1030E0000D00684602F0B9FE01220221094803F0F2
:1030F000B3F901221146074803F0AEF907B000BD4D
:1031000010B5FFF76FFFFFF789FFFFF7A8FF10BDAE
:10311000000C02400064004010B504466FF004004B
:1031200001F0ECFEE11704EB5171C1F3C701394A1C
:1031300011701046007800EB4001C1EBC0104FF653
:10314000FF7101EAC0003449088010BD0146314AD0
:1031500012784A434FF0E0235A6100229A611A46DE
:10316000126942F001021A6100BF4FF0E0221069BB
:1031700000F001021AB100F48032002AF5D04FF0BD
:10318000E022126922F001024FF0E0231A610022CE
:103190009A6170470146204A12884A434FF0E02363
:1031A0005A6100229A611A46126942F001021A61BC
:1031B00000BF4FF0E022106900F001021AB100F4E4
:1031C0008032002AF5D04FF0E022126922F001028D
:1031D0004FF0E0231A6100229A61704770B50446EF
:1031E0004FF4077094FBF0F0C6B24FF4077094FBF5
:1031F000F0F100FB114085B205E04FF40770FFF7D6
:10320000C9FF701EC6B2002EF7D115B12846FFF7D0
:10321000C1FF70BDA8010020AA0100200146086876
:10322000704701464948814201D200207047484812
:10323000814201D20820F9E74648814201D210209C
:10324000F4E74548814201D21820EFE74348814224
:1032500001D22020EAE74248814201D22820E5E756
:103260004048814201D23020E0E73F48814201D20C
:103270003820DBE73D48814201D24020D6E73C4878
:10328000814201D24820D1E73A48814201D2502000
:10329000CCE75820CAE72DE9F04704460E4617460A
:1032A0004FF009080025A946B4F1006F02D304F0DD
:1032B000030008B1BDE8F08704F000FD002004F031
:1032C000E0FC254604EB87092B48854215D211E026
:1032D0002846FFF7A3FF401C58B12846FFF7A1FF7F
:1032E0008246022104F03EFD8046B8F1090F01D06C
:1032F00002E02D1D4D45EBD300BFB8F1090F0CD1F5
:1033000008E02046316804F049FE092800D003E0B7
:10331000241D361D4C45F4D300BF012004F0B1FC40
:1033200004F0D9FC00BFC5E730B503460C4615468E
:10333000002206E01846FFF771FF44F822001B1D2B
:10334000521CAA42F6D330BD7047704700400008B7
:103350000080000800C0000800000108000002080A
:1033600000000408000006080000080800000A0821
:1033700000000C0800000E080000FF1F10B545F209
:10338000555004F0A9FF042004F0A9FF40F2DC50DE
:1033900004F0A8FF04F0A9FF04F0ACFF10BD10B5C5
:1033A0000446082C28D2DFE804F004080C10141896
:1033B0001C2029A005F08AF91FE02CA005F086F951
:1033C0001BE02FA005F082F917E032A005F07EF98E
:1033D00013E035A005F07AF90FE038A005F076F992
:1033E0000BE03BA005F072F907E03EA005F06EF996
:1033F00000203F49C87200E000BF00BF10BD70B59B
:103400000546002400BF0AE055F82400FA2804D23B
:1034100055F82400401C45F82400601CC4B2082C58
:10342000F2DB00240FE055F82400082802D2012026
:103430002F49C87255F824000A2802D92046FFF700
:10344000AEFF601CC4B2082CEDDB70BD10B529487E
:10345000FFF7D5FF10BD00006C6F7374206D6F74A3
:103460006F722049443230310D0A00006C6F737462
:10347000206D6F746F722049443230320D0A0000A3
:103480006C6F7374206D6F746F72204944323033E7
:103490000D0A00006C6F7374206D6F746F72204999
:1034A000443230340D0A00006C6F7374206D6F74F9
:1034B0006F722049443230350D0A00006C6F73740E
:1034C000206D6F746F722049443230360D0A00004F
:1034D0006C6F7374206D6F746F7220494432303793
:1034E0000D0A00006C6F73742072630D0A000000F7
:1034F000AC0100204809002000B597B00121202030
:1035000002F099F80121402002F03DF801218805E0
:1035100002F039F808220921FE4801F01EFE4FF49E
:103520000070159002208DF8580003208DF8590086
:1035300000208DF85A0001208DF85B0015A9F54890
:1035400001F080FDF44803F0DDF80021F24803F0BB
:10355000B5F900BFF04803F0FEF90028FAD14FF0AA
:1035600020600190ED480290ED4803900020049007
:1035700078200590002006904FF48060079000208E
:10358000089009904FF480700A9000020B90002080
:103590000C9003200D9000200E900F9001A9DE48A2
:1035A00003F052F90121DC4803F088F9DB48001FE1
:1035B00002F086F94FF4E13011900020ADF8480098
:1035C000ADF84A00ADF84C00ADF850000420ADF85D
:1035D0004E0011A9D148001F02F0D9F90121CF48AE
:1035E000001F02F05CFA002240F22661CB48001F67
:1035F00002F00BFB002240F22551C848001F02F0E8
:1036000004FB012240F22441C448001F02F0FDFAED
:1036100047208DF8400003208DF841008DF84200CE
:1036200001208DF8430010A801F01BFC012240216D
:10363000BA48001F02F0E0FA17B000BD10B502460C
:10364000002329E0002021E002EB8004D4ED000AF1
:10365000441C02EB840494ED001AF4EEC10AF1EE6E
:1036600010FA11DD02EB800494ED000A441C02EB19
:103670008404D4ED000A02EB8004C4ED000A441C6B
:1036800002EB840484ED000A441CE0B24C1EE41AF0
:103690008442D9DC5C1CE3B24C1E9C42D2DC10BDDF
:1036A00030B5034605E013F8010B80EA02049D489B
:1036B000025D0800A1F10101F5D1104630BD70B5E1
:1036C00005460C4600260DB1022C01D8002070BD25
:1036D000611EFF222846FFF7E3FF0646601E285CB6
:1036E000B04201D10120F2E70020F0E770B52DEDE6
:1036F000028B9FED8D0AB0EE408A8C4803F001F9F1
:10370000C0F17800C5B20024A4E08548005DA5287A
:103710002DD1611D8248FFF7D2FF002827D08049B4
:10372000601C095C7E4AA01C105C41EA00208049B4
:10373000A1F801001146E01C085C7D49C8701146E3
:10374000601D095CA01D105C41EA002000B27849B0
:10375000C8800846C08801280AD10846B0F8012070
:103760006F4BE01D19187248083005F02BF870E017
:103770006F48C088022813D16949E01D085C6C4974
:10378000097C60F303016A4801746549E01D085C27
:1037900000206749097C60F307116548017458E00F
:1037A0006348C08803280AD16148B0F801205C4B07
:1037B000E01D19185E48113005F004F849E05C4836
:1037C000C08804280AD15A48B0F80120544BE01DA3
:1037D00019185748173004F0F5FF3AE05448C088EC
:1037E00005280AD15248B0F801204D4BE01D1918A8
:1037F0004F482B3004F0E6FF2BE04D48C0880628E8
:103800000AD14B48B0F80120454BE01D1918484833
:103810002D3004F0D7FF1CE04548C08807280AD1A6
:103820004348B0F801203E4BE01D191840482E30A7
:1038300004F0C8FF0DE03E48C088082809D13C4884
:10384000B0F80120364BE01D19183948303004F02B
:10385000B9FF641CAC42FFF458AF3548D0F81F00E4
:10386000344948603248D0F81F003349334A12784F
:1038700041F8220031480078401C30490870084661
:103880000078052821D10020087001202C490870FB
:1038900005212948FFF7D2FE012409E0264800EB64
:1038A000840090ED000A30EE080AB0EE408A641CF5
:1038B000032CF3D9B0EE080AC8EE000A1D48C0ED8B
:1038C000060A9FED190AB0EE408ABDEC028B70BD6E
:1038D00010B5002440F224411048001F02F0D0F936
:1038E000B0B10E48001F0488001D048800210A485A
:1038F00002F0E4FFFFF7FAFE1249074803F057F819
:103900007821054802F0FBFF0121034802F0D6FFB1
:1039100000BF10BD00180240406402400414014082
:10392000780900205BA000080000000088600240C9
:10393000F0090020300A0020680A0020BE010020A3
:10394000BB010020400F001070B505460C46002654
:103950000DB1022C00D870BD611EFF222846FFF772
:103960009FFE0646601E2E5400BFF4E7F0EE400AAC
:10397000F6EE001A60EEA11AB0EE611AB0EE600A1F
:1039800010EE100AFE49A1EB600000EE100A21EED5
:10399000002AF7EE081A42EE401A61EE801AB0EEE5
:1039A000610A704730B585B005460DF1120004A9D3
:1039B000031F03AACDE90010891F02A801F01FF818
:1039C00000241DE0032C0BDA02A830F9140000EEED
:1039D000100AB8EEC00A05EB840080ED000A0EE084
:1039E00002A830F9140000EE100AB8EEC00ADFEDAC
:1039F000E50A80EE201A05EB840080ED001A641CB5
:103A0000062CDFDB05B030BD00B52DED108B9BB073
:103A1000F0EE40AAB0EE60BAF0EE41BAB0EE61DA74
:103A2000B0EE42CAF0EE62CAB0EE43AAF0EE638A8C
:103A3000B0EE449AD44890ED000AD0ED000A20EE92
:103A4000200A8DED0B0A90ED000AD048D0ED000A57
:103A500020EE200A8DED0A0ACB4890ED000ACC48F2
:103A6000D0ED000A20EE200AF0EE40EAC64890EDC4
:103A7000000AC848D0ED000A20EE200A8DED090AA0
:103A8000C24890ED000AD0ED000A20EE200A8DED2C
:103A9000080A90ED000ABE48D0ED000A20EE200A88
:103AA0008DED070AB94890ED000ABA48D0ED000A3A
:103AB00020EE200AB0EE40FAB54890ED000AD0EDB5
:103AC000000A20EE200A8DED060A90ED000AB148AA
:103AD000D0ED000A20EE200A8DED050A90ED000AD7
:103AE000D0ED000A20EE200A8DED040AFFF771F9EF
:103AF000A949086008460068A8490968884210D2A8
:103B0000A64800684FF6FF71081AA34909680844DF
:103B100000EE100AB8EE400ADFEDA10AC0EE209ACE
:103B20000CE09D4800689D490968401A00EE100AA3
:103B3000B8EE400ADFED9A0AC0EE209A9648006877
:103B4000964908606DEE0D0A4CEE0C0A4CEEAC0A7C
:103B5000B0EE600AFFF70AFFB0EE408A2DEE080AC9
:103B6000B0EE40DA2CEE080AB0EE40CA2CEE880A1D
:103B7000F0EE40CA6AEE0A0A48EEA80A49EE090ABF
:103B8000B0EE600AFFF7F2FEB0EE408A2AEE080AB5
:103B9000B0EE40AA28EE880AF0EE408A29EE080A24
:103BA000B0EE409AB0EE000A6AEE000A9DED060AF9
:103BB000B6EE001A31EE401A9DED040A31EE400ACD
:103BC00020EE800AF0EE000A68EEA01ADDED070A8A
:103BD0009DED091A70EEC10A01EEA00AF0EE000A8E
:103BE00069EE200A3FEE2E1A00EE810A8DED1A0AC8
:103BF000B0EE000A2AEE001A9DED070ADDED090A73
:103C000030EE200A21EE000AF0EE000A28EEA01A9B
:103C1000DDED080AF6EE001A71EEE01ADDED040A99
:103C200071EEE00A01EE200AF0EE000A69EE201AB9
:103C3000DDED050A9DED0A1A70EEC10A01EEA00A3B
:103C40008DED190AB0EE000A2AEE000A7FEE6E0A28
:103C500020EE200AF0EE000A68EEA01ADDED050A5B
:103C60009DED0A1A70EE810A01EEA00AF0EE000A3C
:103C700029EE201ADDED080AF6EE001A71EEE01AC0
:103C8000DDED060A71EEE00AF0EE40DA41EE20DAF0
:103C90009DED1A0A60EE000A9DED190A40EE000A39
:103CA00010EE901A084606F05DF9CDE900019DED91
:103CB000000B05F01DFB8DED020B9DED020B51EC91
:103CC000100B05F05DFC0FEE900AB0EE6DEA3FEED2
:103CD0006E0AF0EE000A20EE200A8DED180A9DED26
:103CE0000A0ADDED050A30EE200AF0EE000A20EEA9
:103CF000200A8DED170A9DED0B0ADDED080A70EE26
:103D0000600A9DED060A70EEC00A9DED040A30EED1
:103D1000800A8DED160AB0EE000A6FEE800A9DED66
:103D2000060AB6EE001A31EE401A9DED040A31EE95
:103D3000400A20EE800AF0EE4EDAF0EE000A6DEE58
:103D4000A00A3FEE6E1A00EE810A8DED150AB0EE64
:103D5000000A2FEE801A9DED070ADDED090A30EE0C
:103D6000600A21EE000AF0EE4EDAF0EE000A6DEE87
:103D7000A01ADDED0A0A9DED051A70EE810A11E028
:103D8000DF59375F33330342CC010020D0010020DC
:103D9000D4010020D8010020E8010020E401002027
:103DA0000024F44901EEA00A8DED140AB0EE000AD9
:103DB0002FEE800A7EEE8F0A20EE200AF0EE4EDA19
:103DC000F0EE000A2DEEA01ADDED080AF6EE001A5C
:103DD00071EEE01ADDED060A71EEE00A01EE200A4E
:103DE0008DED130A9DED160A6CEE000A9DED170A83
:103DF0004CEEC00A9DED130A28EE801A9DED140AC0
:103E000009EE401A30EE810A8DED120A9DED180A76
:103E10006CEE800A9DED160A4DEE400A9DED150AE6
:103E200029EE001A9DED130A0AEE401A30EE810ABF
:103E30008DED110A9DED170A6DEE000A9DED180A31
:103E40004CEE400A9DED140A2AEE001A9DED150A6B
:103E500008EEC01A30EE810A8DED100A9DED120AAF
:103E6000B5EEC00AF1EE10FA61D09DED110AB5EE83
:103E7000C00AF1EE10FA5AD09DED100AB5EEC00A54
:103E8000F1EE10FA53D09DED120ADFEDFE0A60EE5E
:103E9000200AFD4890ED000A00EEA90A80ED000A14
:103EA0009DED110ADFEDF70A60EE200AF74890ED6C
:103EB000000A00EEA90A80ED000A9DED100ADFED70
:103EC000F10A60EE200AF24890ED000A00EEA90A1D
:103ED00080ED000A9DED120AB0EE001AF0EE6A0ABB
:103EE00041EE000AE84890ED000A30EE800AF0EE5C
:103EF00040AA9DED110AB0EE001AF0EE4B0A41EE19
:103F0000000AE24890ED000A30EE800AB0EE40BAB6
:103F10009DED100AB0EE001AF0EE6B0A41EE000AB9
:103F2000DB4890ED000A30EE800AF0EE40BAD94846
:103F300090ED000AB1EE400A20EE2A0AD648D0EDF4
:103F4000000A00EECB0AD54890ED001AF0EE400AC8
:103F500041EE6B0AD24890ED000A00EEA90A8DED01
:103F60000F0A90ED000A20EE2A0ACB48D0ED000A95
:103F700000EEAB0AC94890ED001AF0EE400A41EE9F
:103F80004B0AC44890ED000A00EEA90A8DED0E0A16
:103F9000C34890ED000A20EE0B0ABE48D0ED000A9F
:103FA00000EEEB0ABD4890ED001AF0EE400A41EE3B
:103FB0002A0AB94890ED000A00EEA90A8DED0D0A13
:103FC000B74890ED000A20EE2B0AB248D0ED000A67
:103FD00000EE8B0AB04890ED001AF0EE400A41EE78
:103FE0006A0AAE4890ED000A00EEA90A8DED0C0AAF
:103FF000DDED0F0A20EEA01ADDED0E0A00EEA01A8C
:10400000DDED0D0A00EEA01ADDED0C0A00EEA01A9F
:10401000B0EE410AFFF7AAFCB0EE408A9DED0F0A10
:1040200020EE080A9E4880ED000A9DED0E0A20EE63
:10403000080A984880ED000A9DED0D0A20EE080A56
:10404000954880ED000A9DED0C0A20EE080A934881
:1040500080ED000A1BB0BDEC108B00BD30B52DED1E
:104060000C8B87B005460C469FED8E0A8DED020A3B
:104070009FED8C0A8DED010A9FED8A0A8DED000AF5
:104080002046FFF78FFC94ED050ADFED870A20EE4E
:10409000200ADFED860A80EE201AB0EE418A94ED08
:1040A000040ADFED810A20EE200ADFED800A80EEAF
:1040B000201AF0EE418A94ED030ADFED7B0A20EE30
:1040C000200ADFED7A0A80EE201AB0EE419A94EDD4
:1040D000020AF0EE402A94ED010AB0EE402A94ED77
:1040E000000AF0EE401A9FED6F4ADFED6E3A9FED49
:1040F0006D3AB0EE481AF0EE680AB0EE490AFFF7E2
:1041000083FC674890ED000A8DED030A614890ED4D
:10411000000A8DED040A604890ED000A8DED050A55
:104120005E4890ED000A8DED060A9DED050AF8EE59
:10413000000A20EE200ADDED050A20EE200ADDED62
:10414000060AB0EE001A60EE810A9DED061A00EE36
:10415000C10AF7EE000A30EE200A10EE101A0846E7
:1041600005F000FF41EC1C0B9DED040AF0EE000A87
:1041700020EE200ADDED050A20EE200ADDED030A1F
:10418000B0EE001A60EE810A9DED061A00EE810A7B
:1041900010EE101A084605F0E5FE41EC1D0BB0EEDE
:1041A0004C1AF0EE6C1AB0EE4D0AF0EE6D0A04F007
:1041B000A7FFB0EE40BAF0EE60BA51EC1B0B05F071
:1041C000D2F941EC1A0B9FED3A0B53EC102B05F092
:1041D00009FC41EC190B9FED380B53EC102B05F04B
:1041E000A9FA41EC180B05F0CBF900EE100A85EDA9
:1041F000000A9DED040AF8EE000A20EE200ADDED2B
:10420000060A20EE200ADDED030AB0EE001A60EE89
:10421000810A9DED051A00EE810A10EE101A08467B
:1042200005F0A0FE41EC1C0BB0EE4C0AF0EE6C0A5F
:1042300004F04AFCB0EE40BAF0EE60BA51EC1B0B51
:1042400005F091F941EC1A0B9FED190B53EC102B73
:1042500005F0C8FB41EC190B9FED170B53EC102B2D
:1042600005F068FA41EC180B05F08AF900EE100A27
:1042700085ED010A9DED040AF8EE000A20EE200A01
:104280001EE000000AD7233CC0010020C40100202A
:10429000C8010020D0010020D4010020D801002056
:1042A000CC01002000000000DB0F49400000344337
:1042B000000000000080664000000060FB21094013
:1042C000DDED040A20EE200ADDED050AB0EE001A4D
:1042D00060EE810A9DED051A00EEC10AF7EE000AB4
:1042E00030EE200A10EE101A084605F03BFE41ECB5
:1042F0001B0B9DED050AF0EE000A20EE200ADDED15
:10430000060A20EE200ADDED030AB0EE001A60EE88
:10431000810A9DED041A00EE810A10EE101A08467B
:1043200005F020FE41EC1C0BB0EE4B1AF0EE6B1AC0
:10433000B0EE4C0AF0EE6C0A04F0E2FEB0EE40AAD9
:10434000F0EE60AA1FED260B53EC102B51EC1A0B6C
:1043500005F048FB41EC190B1FED290B53EC102B1A
:1043600005F0E8F941EC180B05F00AF900EE100A27
:1043700085ED020A07B0BDEC0C8B30BD10B58CB0DA
:104380000446002009900A900B902421684604F00E
:1043900090FA694609A8FFF761FE9DED030A84EDD6
:1043A000030A9DED040A84ED040A9DED050A84EDDF
:1043B000050A94ED070AD4ED050A9FED081A00EEF0
:1043C000810A84ED070A9DED0A0A84ED060A9DED37
:1043D0000B0A84ED080A0CB010BD00006F12833A7E
:1043E0001CB50121202001F0CEF84FF46070009040
:1043F00002208DF8040000208DF8060003208DF8BF
:10440000050000208DF8070069464E4800F01AFEAE
:104410004020009001208DF8040000208DF8060057
:1044200003208DF8050000208DF8070069464548F7
:1044300000F008FE05220721424800F08EFE05220A
:104440000921404800F089FE052208213D4800F07E
:1044500084FE1CBD00B585B00121080501F0EBF814
:104460000121080501F03CF900214FF4801001F012
:1044700037F90020ADF800004FF48270ADF802006B
:104480000020ADF80400ADF80600ADF808004FF4C8
:104490000070ADF80A003020ADF80C000020ADF837
:1044A0000E000A20ADF810006946274803F09CF979
:1044B0000121254803F092FA05B000BD10B504466D
:1044C000214800884FF6C77108401F4908800846F8
:1044D00000882043088001211B4803F07FFA10BDAB
:1044E00010B5FFF77DFFFFF7B5FF3020FFF7E6FFC0
:1044F00010BD70B505460126002422E0012E0FD123
:104500000221114803F0E8FA50B1002401E0601CD8
:10451000C4B2C82CFBDB29460B4803F0DBFA0026AB
:104520007EB90121084803F0D7FA50B1002401E018
:10453000601CC4B2C82CFBDB034803F0C8FAC0B24D
:1045400070BDDBE7001402400050014070B5054625
:104550000C460020F949086005F07F00F849087012
:1045600008460078FFF7C5FFF54804700078FFF7AC
:10457000C0FF0120F349C1F89802002070BD10B5BA
:1045800004460020ED49086044F08000EE490870C0
:1045900008460078FFF7ADFF44F08000FFF7A9FF61
:1045A000EA4908700120E749C1F89802E748007815
:1045B00010BD10B5044644F08000E5490870084677
:1045C0000078FFF796FFE34908700846007810BDB1
:1045D00070B504460D4600212A20FFF7B7FF0220E0
:1045E000FEF7FCFD21462920FFF7B0FF0220FEF771
:1045F000F5FD29466420FFF7A9FF0220FEF7EEFD36
:1046000081212A20FFF7A2FF0A20FEF7E7FD70BDF7
:1046100070B5044621463220FFF798FF0A20FEF7C6
:10462000DDFD80213420FFF791FF0A20FEF7D6FD43
:104630003520FFF7A4FF054600213420FFF786FF51
:104640000A20FEF7CBFD284670BD70B504460E4625
:10465000154621462820FFF779FF0220FEF7BEFD10
:104660000A212920FFF772FF0220FEF7B7FD012182
:104670006420FFF76BFF0220FEF7B0FD44F08001DD
:104680002520FFF763FF0220FEF7A8FD3146262014
:10469000FFF75CFF0220FEF7A1FD03213420FFF7A6
:1046A00055FF0220FEF79AFD03216720FFF74EFF1A
:1046B0000220FEF793FD81212A20FFF747FF062005
:1046C000FEF78CFD45F080012720FFF73FFF072014
:1046D000FEF784FD70BD10B530216A20FFF736FF6C
:1046E0000A20FEF77BFD0D212420FFF72FFF0A2073
:1046F000FEF774FD0E212820FFF728FF0A20FEF7A1
:104700006DFD8E213120FFF721FF0A20FEF766FDA7
:1047100001210B20FFF75CFF0020FFF779FF102835
:1047200001D0012010BD0A20FEF758FD00210A200B
:10473000FFF74EFF0A20FFF76BFF08B10220F1E7F9
:104740000A20FEF74BFD00210B20FFF741FF0B2055
:10475000FFF75EFF08B10320E4E70A20FEF73EFD05
:1047600024214120FFF734FF4120FFF751FF242887
:1047700001D00420D6E70A20FEF730FDC0214220F8
:10478000FFF726FF4220FFF743FFC02801D0052096
:10479000C8E70A20FEF722FD00212A20FFF7D6FEF7
:1047A0000A20FEF71BFD00213420FFF7CFFE0A2070
:1047B000FEF714FD062203210E20FFF746FF6420BA
:1047C000FEF70CFD0020ADE710B50446E006010E33
:1047D0001C20FFF7BBFE10BD10B50446E006010E1D
:1047E0001B20FFF7B3FE10BD2DE9F04304460D4634
:1047F000DDE9076700200021012041E0DFF858C112
:104800003CF81080A0F1010CDFF84C9129F81C80D5
:1048100009F1160C3CF81090A0F1010CDFF838817A
:1048200008F1160828F81C9008F1160C3CF81090B6
:10483000A0F1010C08F1160828F81C9008F1160CDC
:104840003CF81090A0F1010C08F1160828F81C9013
:1048500008F1160C3CF81090A0F1010C08F11608B4
:1048600028F81C9008F1160C3CF81090A0F1010CEF
:1048700008F1160828F81C9000F1010C0CF0FF005C
:104880000A28BBDBDFF8D0C0ACF81240ACF82850E7
:10489000ACF83E20ACF85430ACF86A60ACF88070EC
:1048A000002008E0DFF8B0C03CF910C0614400F11E
:1048B000010C0CF0FF000A28F4DB4FF00A0C91FB0E
:1048C000FCFC0FFA8CFCDFF89080A8F814C00021E3
:1048D00000200AE0DFF880C00CF1160C3CF910C093
:1048E000614400F1010C0CF0FF000A28F2DB4FF0EC
:1048F0000A0C91FBFCFC0FFA8CF8DFF85CC0ACF8FA
:104900002A80002100200AE0DFF84CC00CF12C0CBA
:104910003CF910C0614400F1010C0CF0FF000A28C2
:10492000F2DB4FF00A0C91FBFCFC0FFA8CF8DFF87D
:1049300028C0ACF840800021002018E09882424254
:1049400028020020008042422A0200202902002082
:104950002C0200202B020020400B0020DFF8FCC3BB
:104960003CF910C0614400F1010C0CF0FF000A2872
:10497000F4DB4FF00A0C91FBFCFC0FFA8CF8DFF82B
:10498000DCC3ACF1420CACF85680002100200AE0F8
:10499000DFF8C8C30CF1160C3CF910C0614400F1FB
:1049A000010C0CF0FF000A28F2DB4FF00A0C91FB1F
:1049B000FCFC0FFA8CF8DFF8A4C3ACF1420CACF8A5
:1049C0006C80002100200AE0DFF890C30CF12C0C71
:1049D0003CF910C0614400F1010C0CF0FF000A2802
:1049E000F2DB4FF00A0C91FBFCFC0FFA8CF8DFF8BD
:1049F0006CC3ACF1420CACF88280BDE8F0832DE9C9
:104A0000F04387B004460D4616461F46DDE90E9872
:104A10000020D3490860BB20FFF76BFD3B20FFF768
:104A2000C8FD8DF80C003C20FFF7C3FD8DF80D008C
:104A30009DF80D009DF80C1040EA012000B2C94914
:104A400008803D20FFF7B5FD8DF80E003E20FFF7F2
:104A5000B0FD8DF80F009DF80F009DF80E1040EA94
:104A6000012000B2C04908803F20FFF7A2FD8DF869
:104A700010004020FFF79DFD8DF811009DF81100FA
:104A80009DF8101040EA012000B2B849088041208A
:104A9000FFF78FFD8DF812004220FFF78AFD8DF899
:104AA00013009DF813009DF8121040EA012000B297
:104AB000AF49C8804320FFF77CFD8DF814004420E7
:104AC000FFF777FD8DF815009DF81500A9490989B4
:104AD000401A9DF8141040EA012000B2A64908804F
:104AE0004520FFF766FD8DF816004620FFF761FDB3
:104AF0008DF817009DF817009E494989401A9DF8C6
:104B0000161040EA012000B29C4908804720FFF7B8
:104B100050FD8DF818004820FFF74BFD8DF8190067
:104B20009DF8190093498989401A9DF8181040EAA8
:104B3000012000B29249088001209249C1F89802F0
:104B40008F48B0F900008D49B1F90010CDE900108F
:104B50008948B0F900308548B0F900208248B0F9A2
:104B600000108048B0F90000FFF73EFE7B48423855
:104B7000808A208079484238408D288077484238A2
:104B8000B0F84000308075484238B0F85600103810
:104B900000B2388071484238B0F86C00113800B269
:104BA000A9F800006D484238B0F882000F3800B212
:104BB000A8F80000B8F800007349088007B0BDE805
:104BC000F08370B5DDE90445644E423EB68A068046
:104BD000624E423E768D0E80604E423EB6F8406098
:104BE00016805E4E423EB6F85660103E36B21E80CB
:104BF0005A4E423EB6F86C60761D36B22680574E4D
:104C0000423EB6F88260223636B22E8070BD2DE963
:104C1000F04786B00024002500260027A046A146C4
:104C2000A24600BF0FE06420FEF790FA0DF11600D7
:104C300005A9031F04AACDE90010891F03A8FFF7E7
:104C4000DEFE601CC4B2322CEDDB002421E0C82063
:104C5000FEF77CFA0DF1160005A9031F04AACDE9A1
:104C60000010891F03A8FFF7CAFEBDF90C0080449D
:104C7000BDF90E008144BDF910008244BDF9120057
:104C80000544BDF914000644BDF916000744601C34
:104C9000C4B2642CDBDB642095FBF0F000B23B492E
:104CA0000880642096FBF0F000B239490880642047
:104CB00097FBF0F000B23749088006B0BDE8F087F6
:104CC00010B5024600210AE0334C34F911409442F9
:104CD00003D1314C34F9113003E04C1CE1B2082906
:104CE000F2DB00BFD41A20B210BD10B586B000248C
:104CF00014222A4901A803F0AAFD6420FEF76EFAE7
:104D0000FFF7EEFB6420FEF769FA7520FFF737FC2A
:104D1000702805D022A003F0D9FCFF2006B010BDFA
:104D200000240DE001AA02EB4402517801AA12F816
:104D30001400FFF70BFC0120FEF750FA601CC4B210
:104D40000A2CEFDB0020E9E710B502E0C820FEF7EF
:104D500045FAFFF7CAFFFF28F8D010BD820B0020EC
:104D600098824242F2010020F4010020F601002066
:104D7000180B00202C0B0020F8010020FA01002065
:104D8000FC01002000804242FE010020EC010020D6
:104D9000EE010020F0010020000200205CA10008CC
:104DA0006572726F722031410D0A00001CB501213D
:104DB000102000F0E8FB0220009000208DF8040095
:104DC00003208DF8050002208DF807006946204871
:104DD00000F038F91CBD08B507208DF80000002050
:104DE0008DF801008DF8020001208DF8030068465F
:104DF00000F037F808BD1CB50121880300F01BFC4A
:104E00000121042000F023FD0220009000208DF8F5
:104E100004000C208DF8050001208DF8060068467E
:104E200003F0B8FB1CBD10B5FFF7C0FFFFF7D3FFC1
:104E3000FFF7E1FF10BD10B5022003F011FC10B127
:104E40000448FFF79BFA022003F015FC10BD000098
:104E5000001002407C0A002032490143324A1160AE
:104E6000704770B5002100230F22C4781CB32E4C6C
:104E7000246804F4E064C4F5E064C4F30721C1F1DC
:104E80000404E3B20A4144789C40E1B284781440BF
:104E900021430C07210E254C05786155047804F058
:104EA0001F050124AC4005786D11AD0005F1E0252A
:104EB000C5F8004109E0047804F01F050124AC4066
:104EC0001B4D0678761145F8264070BD194A0A40F8
:104ED0000243154B1B1F1A60704739B1124A121D4D
:104EE00012680243104B1B1D1A6006E00E4A121D89
:104EF000126882430C4B1B1D1A607047042808D1AE
:104F00004FF0E021096941F004014FF0E022116106
:104F100007E04FF0E021096921F004014FF0E022A1
:104F2000116170470000FA050CED00E000E400E0BC
:104F300080E100E080FFFF1F10B5044698488442DE
:104F400008D10121084600F087FB0021012000F074
:104F500083FB76E09348844208D10121022000F0CF
:104F60007BFB0021022000F077FB6AE08E48844240
:104F700008D10121042000F06FFB0021042000F083
:104F80006BFB5EE08948844208D10121082000F0D3
:104F900063FB0021082000F05FFB52E0844884425C
:104FA00008D10121102000F057FB0021102000F053
:104FB00053FB46E07F48844208D10121202000F0C5
:104FC0004BFB0021202000F047FB3AE07A48844266
:104FD00008D10121402000F03FFB0021402000F0DB
:104FE0003BFB2EE07548844208D10121802000F06F
:104FF00033FB0021802000F02FFB22E07048844228
:1050000008D10121801500F027FB0021A01500F038
:1050100023FB16E06B48844208D10121401500F0C3
:105020001BFB0021601500F017FB0AE06648844274
:1050300007D10121001500F00FFB0021201500F021
:105040000BFB10BDF0B50A4600210023002400BF71
:105050003DE0012505FA01F3156805EA03049C42C9
:1050600034D105684F000326BE40B543056015796D
:105070004E00B5400668354305601579012D02D014
:105080001579022D16D185684F000326BE40B54321
:10509000856055794E00B540866835438560456822
:1050A00001268E40B5434560456896798E40B6B27C
:1050B00035434560C5684F000326BE40B543C56013
:1050C000D5794E00B540C6683543C560491C1029E6
:1050D000BFD3F0BD4FF6FF71016000210171417136
:1050E0008171C171704708B54FF480320092009A07
:1050F0000A430092009AC261C161009AC261C2690A
:105100000092C269009208BD0246002013690B405C
:105110000BB1012000E0002070470146086980B211
:1051200070470246002053690B400BB1012000E09C
:10513000002070470146486980B27047018370477C
:10514000418370470AB1018300E0418370474161A8
:10515000704742694A4042617047F0B5002300241D
:105160004D07ED0E02FA05F3CE1000F1200555F8BB
:1051700026504E07F70E0F26BE40B543CF1000F164
:10518000200646F82750CE1000F1200555F826508D
:1051900045EA0304CE1000F1200545F82640F0BD95
:1051A000000002400004024000080240000C0240DF
:1051B000001002400014024000180240001C02408F
:1051C000002002400024024000280240F648006807
:1051D00040F00100F44908600020F34908310860FC
:1051E000F1480068F1490840EF490860F048091D9E
:1051F0000860F048EC4984310860ED481038091D1A
:105200000860E948006820F48020E7490860002031
:10521000E5490C310860E4498C3108607047012190
:10522000E14A921C117011460870704710B5014692
:105230000022002300204A11012A02D1DA4C2368FF
:1052400008E0022A03D1D84C7034236802E0D64C1F
:105250007434236801F01F02012494401C400CB1F7
:10526000012000E0002010BD38B50020009000248F
:10527000002500BF3120FFF7D9FF05460098401CEC
:1052800000900098B0F5A04F01D0002DF2D0312051
:10529000FFF7CCFF08B1012400E00024204638BD10
:1052A00001460020C04A106820F0F80040EAC10022
:1052B00010607047C049086070470021BA4A7032D8
:1052C00011701170012802D004280AD104E00121D4
:1052D000B54A7032117005E00521B34A7032117081
:1052E00000E000BF00BF7047B4490860704770B568
:1052F000049C41EA82150126C6EB530645EA0645A1
:10530000054345EA0465A84E361D356070BDAA49BF
:105310000866704710B5830143EA016343EA0273EC
:10532000A14C8434236010BDA3498866704710B532
:10533000830143EA016343EA02739B4C8834236090
:1053400010BD9D49086770479B49C8647047024675
:105350000020954B0833186820F0EC6042EA010306
:105360001843914B083318607047024600208E4B5B
:105370000833186820F0784042EA010318438A4B4A
:1053800008331860704701460020874A08321068C9
:1053900020F003000843106070478348083000681D
:1053A00000F00C007047014600207F4A0832106868
:1053B00020F0F000084310607047014600207A4A50
:1053C0000832106820F4E05008431060704701462E
:1053D0000020754A0832106820F4604040EAC1009D
:1053E00010607047F0B5002100220024022500263D
:1053F00002236D4F08373F6807F00C0121B10429E3
:1054000005D0082937D105E06D4F076036E06D4FB4
:10541000076033E0644F3F1D3F68C7F38056624F1B
:105420003F1D3F6807F03F036EB1664FB7FBF3F7D0
:10543000DFF874C10CF1040CDCF800C0CCF3881C5C
:1054400007FB0CF40CE05E4FB7FBF3F7DFF858C135
:105450000CF1040CDCF800C0CCF3881C07FB0CF446
:10546000514F3F1D3F68C7F301477F1C7D00B4FBD0
:10547000F5F7076002E0524F076000BF00BF4A4FD8
:1054800008373F6807F0F00109094F4F7A5C076859
:10549000D7404760444F08373F6807F4E051890A16
:1054A000494F7A5C4768D74087603F4F08373F686D
:1054B00007F46041490B444F7A5C4768D740C760A6
:1054C000F0BD002100F44072B2F5407F0AD1364AA7
:1054D0000832116821F4F8113C4A02401143324A63
:1054E00008321160304A70321268C0F30B031A435D
:1054F0002D4B70331A60704730494439086070474B
:105500002E494039086070473149086070470146AC
:105510000020254A8C32106820F01F004A1E1043DC
:10552000214A8C3210607047014600201E4A8C329E
:10553000106820F4F8504A1E40EA02201A4A8C32C1
:105540001060704701460020174A8C32106820F422
:10555000401008431060704701460020124A8C3208
:10556000106820F440000843106070470146002096
:105570000D4A8C32106820F44030084310607047A8
:1055800014490860704739B1074A30321268024343
:10559000054B30331A6006E0034A3032126882430A
:1055A000014B30331A60704700380240FFFFF6EAC3
:1055B000103000240030002000004742800E474297
:1055C0000024F400001BB7002D020020FFFCFF0F99
:1055D0005C014742E011474229B1934A12680243F5
:1055E000914B1A6004E0904A126882438E4B1A6015
:1055F000704739B18C4A121D126802438A4B1B1D39
:105600001A6006E0884A121D12688243864B1B1DF1
:105610001A60704739B1844A0C3212680243824BD7
:105620000C331A6006E0804A0C32126882437E4BCB
:105630000C331A60704739B17B4A1032126802434A
:10564000794B10331A6006E0774A103212688243B1
:10565000754B10331A60704739B1734A243A126897
:105660000243714B243B1A6006E06F4A243A1268E9
:1056700082436D4B243B1A60704739B16A4A203A25
:1056800012680243684B203B1A6006E0664A203AE3
:1056900012688243644B203B1A60704739B1624AFA
:1056A0001C3A12680243604B1C3B1A6006E05E4ADB
:1056B0001C3A126882435C4B1C3B1A60704739B13C
:1056C000594A143A12680243574B143B1A6006E0D9
:1056D000554A143A12688243534B143B1A60704780
:1056E00039B1514A103A126802434F4B103B1A60CD
:1056F00006E04D4A103A126882434B4B103B1A6049
:10570000704739B1484A1C3212680243464B1C3379
:105710001A6006E0444A1C3212688243424B1C3332
:105720001A60704739B1404A2032126802433E4B3A
:1057300020331A6006E03C4A2032126882433A4B1A
:1057400020331A60704739B1374A24321268024355
:10575000354B24331A6006E0334A24321268824300
:10576000314B24331A60704739B12F4A2C321268FA
:1057700002432D4B2C331A6006E02B4A2C32126860
:105780008243294B2C331A60704739B1264A303294
:1057900012680243244B30331A6006E0224A30324A
:1057A00012688243204B30331A607047012808D1B9
:1057B0001D493C31096841F008011B4A3C32116027
:1057C00007E019493C31096821F00801164A3C32CA
:1057D0001160704739B1144A273A12780243124BCC
:1057E000273B1A7006E0104A273A127882430E4B84
:1057F000273B1A7070470C484030006840F08070BA
:10580000094940310860704701460020064A283A9D
:1058100012680A400AB1012000E0002070470249E6
:1058200026390870704700003438024010B5012155
:105830008803FFF755FF00214FF48040FFF750FF2A
:1058400010BD1C49086070471B490862704730B59D
:1058500000228B071C0F0F2303FA04F2154B0833A9
:105860008C1053F824309343124C08348D1044F8B4
:10587000253023468C1053F824308C07240F00FA6F
:1058800004F423430B4C08348D1044F8253030BD0C
:105890000949DC31086070470849086070470020FA
:1058A00004492031096801F4807109B1012000E048
:1058B00000207047003801400000274200042742C2
:1058C00010B50446FA48844208D101211020FFF7A0
:1058D00007FF00211020FFF703FF57E0F54884423F
:1058E00009D101214804FFF7EAFE00214FF40030FE
:1058F000FFF7E5FE4AE0F048844209D1012188041F
:10590000FFF7DDFE00214FF48020FFF7D8FE3DE0D9
:10591000EA48844209D10121C804FFF7D0FE0021E2
:105920004FF40020FFF7CBFE30E0E548844209D178
:1059300001210805FFF7C3FE00214FF48010FFF797
:10594000BEFE23E0DF48844208D101212020FFF77A
:10595000C7FE00212020FFF7C3FE17E0DA4884428B
:1059600009D101218807FFF7AAFE00214FF08040EE
:10597000FFF7A5FE0AE0D548844207D10121400582
:10598000FFF79DFE00216005FFF799FE10BD2DE990
:10599000FF4705460E460024A14600BFA046B08939
:1059A00000B100BF2C8A24F44054F08804432C82B8
:1059B000AC8941F20C608443B08831890843718915
:1059C00008430443AC81AC8A24F44074B089044396
:1059D000AC826846FFF706FDB548854202D0B9485B
:1059E000854202D1DDF80C9001E0DDF80890A8892D
:1059F00000F4004040B109EBC90000EB0910316828
:105A00004900B0FBF1F707E009EBC90000EB091012
:105A100031688900B0FBF1F76420B7FBF0F00401B6
:105A20002009642101FB1078A88900F4004040B1EE
:105A3000322000EBC800B0FBF1F000F00700044397
:105A400008E0322000EB08106421B0FBF1F000F018
:105A50000F0004432C81BDE8FF874FF4165101600D
:105A600000218180C18001810C214181002181813F
:105A7000704710B502460020108A20F470600B8831
:105A80004C8823438C882343CC88234318431082BB
:105A900010BD0021018041808180C180704721B10B
:105AA000828942F40052828104E082894DF6FF73BC
:105AB0001A4082817047028B02F47F420283028B7C
:105AC0000A430283704721B1828942F400428281F5
:105AD00003E08289C2F30E028281704721B1828A7B
